:100000000C9434000C9449000C9449000C94490061
:100010000C9449000C9449000C9449000C9449003C
:100020000C9449000C9449000C9449000C9449002C
:100030000C9449000C9449000C9449000C9449001C
:100040000C9449000C9449000C9449000C9449000C
:100050000C9449000C9449000C9449000C944900FC
:100060000C9449000C94490011241FBECFEFD8E036
:10007000DEBFCDBF11E0A0E0B1E0E6E1F1E002C0FB
:1000800005900D92A830B107D9F70E9478000C9422
:1000900089000C940000FC012081A22FB0E0A05840
:1000A000BF4F8C9161FB992790F960FF14C0322FEC
:1000B0003170992341F091E0311192E0920F98381C
:1000C00081F490E80EC09FEF31119EEF920F9E37A2
:1000D00041F496E806C0992331F091E0920F273859
:1000E00081F3908308959FEF920F2038D1F7F1CFDD
:1000F0000F92CDB7DEB780E8898363E0CE01019629
:100100000E944B0025B1207F25B995B1982B95B958
:06011000F4CFF894FFCFCC
:080116000A08090105040602B4
:00000001FF
